:020000020000FC
:02000000FFC13E
:040160000C945602A3
:1004000032D023D012D04DD005E50C931FEF012739
:100410000C9342E354D0FBCF1F931091A10915FF19
:10042000FCCF0093A0091F91089500E10093A30958
:1004300008E10093A40903E20093A50901E20093F7
:10044000A60901E90093A709089508E00093610651
:100450000093650604E0009362060AE00093C1077A
:100460000093C607089507E10093E10603E10093B6
:10047000E5060FEF009321070FEF0093010701E05E
:1004800000934004F4E0E2E500E8019308E2008311
:1004900005E10093500408E200933900B0E8A0E0C1
:1004A000089501E00093A200789408950F930091BD
:1004B000A009B2DF00E80093A1090F9118954A95B1
:1004C00003D04030E1F708954F9344E14A9504D0BA
:1004D0004030E1F74F9108954F9346EF4A95000061
:0604E000E9F74F910895B9
:00000001FF
