S01700004C6162355F6C63645F6B65797061642E737265635A
S11300000C94FE000C9424010C9424010C942401FF
S11300100C9424010C9424010C9424010C942401C8
S11300200C9424010C9424010C9424010C942401B8
S11300300C9424010C9424010C9424010C942401A8
S11300400C9424010C9424010C9424010C94240198
S11300500C9424010C9424010C9424010C94240188
S11300600C9424010C9424010C9424010C94240178
S11300700C9424010C9424010C9424010C94240168
S11300800C9424010C9424010C9424010C94240158
S11300900C9424010C9424010C9424010C94240148
S11300A00C9424010C9424010C9424010C94240138
S11300B00C9424010C9424010C9424010C94240128
S11300C00C9424010C9424010C9424010C94240118
S11300D00C9424010C9424010C9424010C94240108
S11300E00C9424010C9424010C9424010C942401F8
S11300F00C9424010C9424010C9424010C942401E8
S11301000C9424010C9424010C9424010C942401D7
S11301100C9424010C9424010C9424010C942401C7
S11301200C9424010C9424010C9424010C942401B7
S11301300C9424010C9424010C9424010C942401A7
S11301400C9424010C9424010C9424010C94240197
S11301500C9424010C9424010C9424010C94240187
S11301600C9424010C9424010C9424010C94240177
S11301700C9424010C9424010C9424010C94240167
S11301800C9424010C9424010C9424010C94240157
S11301900C9424010C9424010C9424010C94240147
S11301A00C9424010C9424010C9424010C94240137
S11301B00C9424010C9424010C9424010C94240127
S11301C00C9424010C9424010C9424010C94240117
S11301D00C9424010C9424010C9424010C94240107
S11301E00C9424010C9424010C9424010C942401F7
S11301F00C9424010C9424010C94240111241FBE9A
S1130200CFEFCDBFDFE3DEBF00E00CBF18BE19BEE9
S11302101ABE1BBE10E2A0E0B0E2ECE4F4E100E0A0
S11302200BBF02C007900D92AC3DB107D9F71BBEBE
S113023020E2ACEDB0E201C01D92A03EB207E1F7AE
S11302400E949C040C94240A0C940000FC010FB638
S1130250F8946091DC207091DD208091DE209091F3
S1130260DF200FBE309721F06083718382839383F4
S11302700895CF93DF93CDB7DEB780EE96E027E302
S1130280FC01208380EE96E023E3FC01248380E2DA
S113029097E02FEFFC01208380E494E021E0FC014F
S11302A0208380E494E028E2FC01238B80E494E042
S11302B020E8FC01228B80E494E025E1FC01208B02
S11302C080E494E020E439E3FC01268B378B80E45E
S11302D094E029E1FC01248BDF91CF910895CF9321
S11302E0DF93CDB7DEB72C97CDBFDEBF0E94C00130
S11302F080E090E5A9E3B0E089839A83AB83BC8373
S113030089819A81AB81BC8128E30BB6ABBFFC0128
S113031020830BBE000000000E94C00180E090E535
S1130320A9E3B0E08D839E83AF83B8878D819E81DE
S1130330AF81B8852FE00BB6ABBFFC0120830BBEA9
S1130340000000000E94C00180E090E5A9E3B0E055
S113035089879A87AB87BC8789859A85AB85BC8555
S113036021E00BB6ABBFFC0120830BBE00000000F4
S11303700E94C0012C96CDBFDEBFDF91CF910895BE
S1130380CF93DF9300D000D0CDB7DEB7198280E0E1
S113039090E5A9E3B0E08A839B83AC83BD838A8123
S11303A09B81AC81BD810BB6ABBFFC0180810BBED0
S11303B08E838E818983898188234CF32696CDBFD1
S11303C0DEBFDF91CF910895CF93DF93CDB7DEB732
S11303D02597CDBFDEBF8D830E94C00181E090E5EB
S11303E0A9E3B0E089839A83AB83BC8389819A8132
S11303F0AB81BC812D810BB6ABBFFC0120830BBE4E
S1130400000000000E94C0012596CDBFDEBFDF9131
S1130410CF910895CF93DF931F921F92CDB7DEB78C
S113042089839A830BC089819A81FC0180810E940F
S1130430E40189819A81019689839A8389819A81C9
S1130440FC018081882379F70F900F90DF91CF9181
S11304500895CF93DF93CDB7DEB72597CDBFDEBF29
S11304608D830E94C00180E090E5A9E3B0E0898318
S11304709A83AB83BC8389819A81AB81BC812D81B2
S11304800BB6ABBFFC0120830BBE000000000E9432
S1130490C0012596CDBFDEBFDF91CF910895CF93E4
S11304A0DF9300D01F92CDB7DEB70E94C00180E079
S11304B090E5A9E3B0E089839A83AB83BC83898107
S11304C09A81AB81BC8121E00BB6ABBFFC012083D8
S11304D00BBE000000000E94C0012496CDBFDEBF09
S11304E0DF91CF910895CF93DF931F92CDB7DEB7FD
S11304F09091042087E08927809304208091042030
S1130500886089830E94C00189810E9429020F901A
S1130510DF91CF910895CF93DF93CDB7DEB780E419
S113052092E028E1FC01218380E492E020E3FC01D5
S1130530228380E492E0FC01148280E492E022E4CD
S1130540FC01238380E492E020E2FC0121A380E407
S113055092E021E0FC0122A380E492E021E0FC018E
S113056020A380E492E028E2FC0121A780E492E049
S113057021E0FC0122A780E492E021E0FC0120A715
S113058080E492E02DE0FC01208380E296E023E306
S1130590FC012283DF91CF910895CF93DF93CDB7F0
S11305A0DEB7000080E492E0FC0183A18823D1F34C
S11305B080E492E021E0FC0123A380E492E0FC01CA
S11305C084A195A1DF91CF910895CF93DF93CDB707
S11305D0DEB7A697CDBFDEBF8DA39EA30E944F02B8
S11305E08DA19EA197708DA39EA38DA19EA1880F1E
S11305F0991F8DA39EA38DA19EA1CC01A0E0B0E084
S1130600BC01CD010E944408DC01CB0126EF39E096
S113061040EA5AE3BC01CD010E94D208DC01CB01BF
S113062089839A83AB83BC8369817A818B819C8122
S11306300E941508DC01CB018D838D81805D8E8342
S11306408D81882F90E0092E000CAA0BBB0BBC01F6
S1130650CD010E944608DC01CB019C01AD016981FA
S11306607A818B819C810E94A807DC01CB0120E068
S113067030E040E251E4BC01CD010E94D208DC012B
S1130680CB018F839887A987BA876F8178858985FD
S11306909A850E941508DC01CB018B878B85805DD0
S11306A08C878B85882F90E0092E000CAA0BBB0B3E
S11306B0BC01CD010E944608DC01CB019C01AD01C7
S11306C06F81788589859A850E94A807DC01CB0112
S11306D020E030E040E251E4BC01CD010E94D208A8
S11306E0DC01CB018D879E87AF87B88B6D857E85B6
S11306F08F8598890E941508DC01CB01898B898933
S1130700805D8A8B8DA19EA1892F99270E94C103A8
S11307108B8B8DA19EA1929582958F7089279F7056
S113072089278F700E94C1038C8B8DA18F700E94CA
S1130730C1038D8B8E818E8B8EE28F8B8C85888FFF
S11307408A89898F80E28A8F86E58B8F80E28C8FFD
S113075088E28D8F80E38E8F88E78F8F8B8988A3C3
S11307608C8989A38D898AA389E28BA31CA2CE01DB
S113077046960E940A02A696CDBFDEBFDF91CF91B6
S11307800895CF93DF931F92CDB7DEB78983898114
S11307908A3020F48981805D898303C08981895CE2
S11307A0898389810F90DF91CF910895CF93DF934F
S11307B0CDB7DEB7000080E492E0FC0183A5882376
S11307C0D1F380E492E021E0FC0123A780E492E0ED
S11307D0FC0184A595A5DF91CF910895CF93DF9374
S11307E0CDB7DEB780EA96E028E1FC01278B80EAEA
S11307F096E028E1FC01268B80EA96E028E1FC01E2
S1130800258B80EA96E028E1FC01248B80EA96E0BF
S113081028E1FC01238B80EA96E028E1FC01228B8D
S113082080EA96E028E1FC01218B80EA96E028E149
S1130830FC01208B80EA96E02FE0FC012183DF910C
S1130840CF910895CF93DF93CDB7DEB72597CDBF72
S1130850DEBF8FEF8B831A821A8250C08A81282FC1
S113086030E081E090E002C0880F991F2A95E2F7FA
S113087080958F708C8380EA96E02C81FC01248320
S1130880000080EA96E0FC018085807F8D838D8165
S1130890803F88F58D81882F90E0803B910591F011
S11308A0813B910524F48037910579F011C0803D96
S11308B0910529F0803E910559F4198209C081E01F
S11308C0898306C082E0898303C083E089830000B2
S11308D08981282F30E08A81882F90E0880F991F22
S11308E0880F991F820F931F8B5F9F4DFC0180819E
S11308F08B838B8108C08A818F5F8A838A8184304D
S113090008F4ACCF8B812596CDBFDEBFDF91CF91AC
S11309100895CF93DF93CDB7DEB7000080EA96E069
S1130920FC018085882F90E0807F9927803F910586
S1130930ACF3DF91CF910895CF93DF93CDB7DEB7BA
S11309402C97CDBFDEBF0E9439010E946F010E9427
S11309508B020E94EE0380E090E00E942601DC01FD
S1130960CB010E94B6098FEF8A838A818F3F39F4C5
S11309700E942204898389818F3FD1F304C08A8134
S113098089838FEF8A838981823018F40E947302ED
S113099062C08981843068F40E94CD020E94E5021D
S11309A00E942E050E9422048A838A818F3FA1F32C
S11309B052C08981863028F486E490E20E940A02BB
S11309C04AC08981883060F484E590E20E940A027A
S11309D080EC0E94290285E690E20E940A023BC054
S11309E089818E3008F435C089818F3F91F10E944E
S11309F04F020E94D6038B839C838B819C818F3F03
S1130A00910509F098F480E090E8A8E2B0E08D83C5
S1130A109E83AF83B8878D819E81AF81B88521E0A5
S1130A200BB6ABBFFC0120830BBE15C080E090E881
S1130A30A8E2B0E089879A87AB87BC8789859A85C5
S1130A40AB85BC8520E00BB6ABBFFC0120830BBE9D
S1130A5002C00E946D050E94890487CFCF93DF9363
S1130A601F921F92CDB7DEB719821A8206C000000A
S1130A7089819A81019689839A8389819A818839A7
S1130A809A43ACF30F900F90DF91CF910895CF93D9
S1130A90DF9300D01F92CDB7DEB719821A8213C03C
S1130AA01B821C8206C000008B819C8101968B8373
S1130AB09C838B819C8188389341ACF389819A8192
S1130AC0019689839A8389819A8144974CF3249669
S1130AD0CDBFDEBFDF91CF910895CF93DF93CDB724
S1130AE0DEB72B97CDBFDEBF8091152090911620E5
S1130AF00E940A020E949A060E944F028FEF898385
S1130B0085E08D838091192090911A200E940A0219
S1130B1080EC0E94290287E290E20E940A020E946D
S1130B202204898389818F3FD1F396C00E944F02AA
S1130B301A821E821F821B821C8239C082E790E2C5
S1130B400E940A028B818F5C0E94E4018B81982FA2
S1130B50990F8D81292F280F8E819F81BC01822FAF
S1130B600E9438060E949A060E944F029B81892F98
S1130B70880F890F81953EE0380F8B81982F990F4C
S1130B808D81292F280F8E819F81AC01632F822FA5
S1130B900E94B606982F8A81890F8A830E9489044D
S1130BA00E944F028B819C8101968B839C838B8155
S1130BB09C8103971CF289E790E20E940A028A81D1
S1130BC08431B8F09A818DEC989F812D11248695FB
S1130BD08695869588878A818451898788850E942D
S1130BE0C1030E94E40189850E94C1030E94E401BB
S1130BF021C08A818A30D0F08A818431B8F49A8104
S1130C008DEC989F812D11248695869586958A87EB
S1130C108A818A508B878A850E94C1030E94E401DD
S1130C208B850E94C1030E94E40104C08A81805D17
S1130C300E94E4010E9447050E944F0280911920FE
S1130C4090911A200E940A020E949A060E9422048D
S1130C50898389818F3FD1F389818E3009F066CFF2
S1130C600E944F022B96CDBFDEBFDF91CF91089536
S1130C700F931F93CF93DF93CDB7DEB72D97CDBFDF
S1130C80DEBF8F836887798719821A8219C08981A8
S1130C909A81288539858901080F191F0E94B20994
S1130CA083709078992324F401978C6F9F6F019639
S1130CB08F5BF801808389819A81019689839A8365
S1130CC08F81282F30E089819A8182179307FCF263
S1130CD00E94B2092F81222F30E0B9010E943F09FE
S1130CE08D839E831B821C8215C00E94B2092F81B2
S1130CF0222F30E0B9010E943F099C018885998523
S1130D00820F931F20E3FC0120838B819C81019639
S1130D108B839C832B813C818D819E81281739078D
S1130D2024F300002D96CDBFDEBFDF91CF911F913C
S1130D300F910895CF93DF931F92CDB7DEB70E9432
S1130D402E0580EC0E942902809117209091182092
S1130D500E940A020E942204898389818F3FD1F371
S1130D600E9489040F90DF91CF910895CF93DF9370
S1130D70CDB7DEB76097CDBFDEBF8D876E874F8757
S1130D80588B8FEF89831A821B82C9C08B81882F6D
S1130D9090E02F853889820F931FFC018081813474
S1130DA008F468C08B81882F90E02F853889820FE2
S1130DB0931FFC018081853408F05CC087E890E2D1
S1130DC00E940A028B81882F90E02F853889820F38
S1130DD0931FFC0180810E94E4010E9489041C820B
S1130DE01D8219C01E821F820CC00E9422048983A6
S1130DF089818F3F09F00AC08E819F8101968E837D
S1130E009F838E819F81883E93407CF38C819D815A
S1130E1001968C839D838E85282F30E08C819D8163
S1130E2082179307FCF289818F700E94C103482FB7
S1130E308B81882F90E02F853889820F931FFC01C6
S1130E408081481759F480EC0E94290284E990E2D9
S1130E500E940A028A818F5F8A8307C080EC0E9405
S1130E60290281EA90E20E940A020E9447050E9438
S1130E704F0252C00E94B20983709078992324F4DF
S1130E8001978C6F9F6F01968F5B8C878CEA90E241
S1130E900E940A028C850E94E4010E94890418863B
S1130EA0198619C01A861B860CC00E9422048983E5
S1130EB089818F3F09F00AC08A859B8501968A87BC
S1130EC09B878A859B85883E93407CF3888599859A
S1130ED00196888799878E85282F30E088859985A3
S1130EE082179307FCF289818F3F59F480EC0E94AA
S1130EF0290289EB90E20E940A028A818F5F8A8329
S1130F0007C080EC0E94290283EC90E20E940A024E
S1130F100E9447050E944F028B818F5F8B839B81C8
S1130F208D85981708F432CF84ED90E20E940A026E
S1130F308A81805D0E94E40180EC0E9429020E9463
S1130F409A068A816096CDBFDEBFDF91CF91089566
S1130F505058BB27AA270E94C0070C9498080E94E7
S1130F608A0838F00E94910820F039F49F3F19F460
S1130F7026F40C9487080EF4E095E7FB0C948108A2
S1130F80E92F0E94A90858F3BA1762077307840768
S1130F90950720F079F4A6F50C94CB080EF4E095AF
S1130FA00B2EBA2FA02D0B01B90190010C01CA011F
S1130FB0A0011124FF27591B99F0593F50F4503ECA
S1130FC068F11A16F040A22F232F342F4427585FBC
S1130FD0F3CF469537952795A795F0405395C9F7D4
S1130FE07EF41F16BA0B620B730B840BBAF091508C
S1130FF0A1F0FF0FBB1F661F771F881FC2F70EC02B
S1131000BA0F621F731F841F48F4879577956795FD
S1131010B795F7959E3F08F0B0CF9395880F08F0E9
S11310209927EE0F9795879508950E94B10888F047
S11310309F5798F0B92F9927B751B0F0E1F0660F98
S1131040771F881F991F1AF0BA95C9F714C0B130D9
S113105091F00E94CB08B1E008950C94CB08672F5F
S1131060782F8827B85F39F0B93FCCF38695779508
S11310706795B395D9F73EF49095809570956195F1
S11310807F4F8F4F9F4F0895E89409C097FB3EF41C
S113109090958095709561957F4F8F4F9F4F9923C1
S11310A0A9F0F92F96E9BB279395F695879577953F
S11310B06795B795F111F8CFFAF4BB0F11F460FFFF
S11310C01BC06F5F7F4F8F4F9F4F16C0882311F057
S11310D096E911C0772321F09EE8872F762F05C06B
S11310E0662371F096E8862F70E060E02AF09A9506
S11310F0660F771F881FDAF7880F9695879597F9FB
S1131100089597F99F6780E870E060E008959FEF85
S113111080EC089500240A9416161706180609068A
S1131120089500240A941216130614060506089559
S1131130092E0394000C11F4882352F0BB0F40F4E1
S1131140BF2B11F460FF04C06F5F7F4F8F4F9F4F21
S1131150089557FD9058440F551F59F05F3F71F0A3
S11311604795880F97FB991F61F09F3F79F087950A
S11311700895121613061406551FF2CF4695F1DF93
S113118008C0161617061806991FF1CF8695710523
S1131190610508940895E894BB2766277727CB0157
S11311A097F908950E94E5080C9498080E948A080B
S11311B038F00E94910820F0952311F00C948108D6
S11311C00C94870811240C94CC080E94A90870F38D
S11311D0959FC1F3950F50E0551F629FF001729FD8
S11311E0BB27F00DB11D639FAA27F00DB11DAA1FE7
S11311F0649F6627B00DA11D661F829F2227B00D34
S1131200A11D621F739FB00DA11D621F839FA00DBE
S1131210611D221F749F3327A00D611D231F849F0E
S1131220600D211D822F762F6A2F11249F57504065
S11312309AF0F1F088234AF0EE0FFF1FBB1F661FE0
S1131240771F881F91505040A9F79E3F510580F0A9
S11312500C9481080C94CC085F3FE4F3983ED4F3DB
S1131260869577956795B795F795E7959F5FC1F74D
S1131270FE2B880F911D9695879597F9089597FBF6
S1131280072E16F4009407D077FD09D00E94530965
S113129007FC05D03EF4909581959F4F0895709575
S11312A061957F4F0895AA1BBB1B51E107C0AA1F7C
S11312B0BB1FA617B70710F0A61BB70B881F991FF3
S11312C05A95A9F780959095BC01CD0108958F9208
S11312D09F92AF92BF92CF92DF92EF92FF92CF9301
S11312E0DF93EC01688179818A819B8161157105A5
S11312F08105910521F464E279ED8BE597E02DE118
S113130033EF41E050E00E94C10949015A019B01B9
S1131310AC01A7EAB1E40E94E0096B017C01ACEEE8
S1131320B4EFA50194010E94EE09DC01CB018C0D00
S11313309D1DAE1DBF1DB7FF03C00197A109B04895
S113134088839983AA83BB839F77DF91CF91FF9092
S1131350EF90DF90CF90BF90AF909F908F900895C3
S11313600C94670980E090E20C946709A0E0B0E077
S11313708093002090930120A0930220B093032037
S11313800895052E97FB1EF400940E94D80957FD7A
S113139007D00E94F30907FC03D04EF40C94D8093B
S11313A050954095309521953F4F4F4F5F4F08958D
S11313B090958095709561957F4F8F4F9F4F0895BD
S11313C00E94150AA59F900DB49F900DA49F800DB7
S11313D0911D11240895B7FF0C94E0090E94E009BF
S11313E0821B930B0895A1E21A2EAA1BBB1BFD01BD
S11313F00DC0AA1FBB1FEE1FFF1FA217B307E407F0
S1131400F50720F0A21BB30BE40BF50B661F771F47
S1131410881F991F1A9469F7609570958095909527
S11314209B01AC01BD01CF010895A29FB001B39F00
S1131430C001A39F700D811D1124911DB29F700DD9
S10F1440811D1124911D0895F894FFCF24
S113144C01000000070104070E0205080003060949
S113145C0F0A0B0C0D1B202720352053696D6F6E62
S113146C20536179732100507265737320616E7916
S113147C206B6579005072657373202A20746F2079
S113148C717569742E004E69636B20496D616D73BF
S113149C686168004D6179207468652053636877CE
S11314AC6172747A006265207769746820796F754B
S11314BC2100526F756E642000546F74616C20535C
S11314CC636F72653A200053696D6F6E2073617996
S11314DC733A2000434F525245435421203A2D294C
S11314EC0057524F4E4721203A2D280050726573F5
S11314FC7320746869733A2000476F6F64204A6FD5
S113150C62210053696D6F6E206469646E277420C8
S10F151C7361790053636F72653A20001C
S9032017C5
