S01200004C6162365F50617274422E7372656395
S11300000C94FE000C941C010C941C010C941C0117
S11300100C941C010C941C010C941C010C941C01E8
S11300200C941C010C941C010C941C010C941C01D8
S11300300C941C010C941C010C941C010C941C01C8
S11300400C941C010C941C010C941C010C941C01B8
S11300500C941C010C941C010C941C010C941C01A8
S11300600C941C010C941C010C941C010C941C0198
S11300700C941C010C941C010C941C010C941C0188
S11300800C941C010C941C010C941C010C941C0178
S11300900C941C010C941C010C941C010C941C0168
S11300A00C941C010C941C010C941C010C941C0158
S11300B00C941C010C941C010C941C010C941C0148
S11300C00C941C010C941C010C941C010C941C0138
S11300D00C941C010C94CF040C941C010C941C0172
S11300E00C941C010C941C010C941C010C941C0118
S11300F00C941C010C941C010C941C010C941C0108
S11301000C941C010C941C010C941C010C941C01F7
S11301100C941C010C941C010C941C010C941C01E7
S11301200C941C010C941C010C941C010C941C01D7
S11301300C941C010C941C010C941C010C941C01C7
S11301400C941C010C941C010C941C010C941C01B7
S11301500C941C010C941C010C941C010C941C01A7
S11301600C941C010C941C010C941C010C941C0197
S11301700C941C010C941C010C941C010C941C0187
S11301800C941C010C941C010C941C010C941C0177
S11301900C941C010C941C010C941C010C941C0167
S11301A00C941C010C941C010C941C010C941C0157
S11301B00C941C010C941C010C941C010C941C0147
S11301C00C941C010C941C010C941C010C941C0137
S11301D00C941C010C941C010C941C010C941C0127
S11301E00C941C010C941C010C941C010C941C0117
S11301F00C941C010C941C010C941C0111241FBEB2
S1130200CFEFCDBFDFE3DEBF00E00CBF18BE19BEE9
S11302101ABE1BBE13E2A0E0B0E2ECEFFAE000E08D
S11302200BBF02C007900D92AE33B107D9F71BBEC6
S11302300E9406030C947C050C940000CF93DF937A
S1130240CDB7DEB780EE96E027E3FC01208380EE95
S113025096E023E3FC01248380E297E02FEFFC0186
S1130260208380E494E021E0FC01208380E494E096
S113027028E2FC01238B80E494E020E8FC01228B3B
S113028080E494E025E1FC01208B80E494E020E408
S113029039E3FC01268B378B80E494E029E1FC01EF
S11302A0248BDF91CF910895CF93DF93CDB7DEB741
S11302B02C97CDBFDEBF0E94A50180E090E5A9E3A5
S11302C0B0E089839A83AB83BC8389819A81AB81B3
S11302D0BC8128E30BB6ABBFFC0120830BBE00003E
S11302E000000E94A50180E090E5A9E3B0E08D83C1
S11302F09E83AF83B8878D819E81AF81B8852FE0BF
S11303000BB6ABBFFC0120830BBE000000000E94B3
S1130310A50180E090E5A9E3B0E089879A87AB87DF
S1130320BC8789859A85AB85BC8521E00BB6ABBFBC
S1130330FC0120830BBE000000000E94A5012C9646
S1130340CDBFDEBFDF91CF910895CF93DF9300D06F
S113035000D0CDB7DEB7198280E090E5A9E3B0E024
S11303608A839B83AC83BD838A819B81AC81BD815D
S11303700BB6ABBFFC0180810BBE8E838E8189835B
S1130380898188234CF32696CDBFDEBFDF91CF91C0
S11303900895CF93DF93CDB7DEB72597CDBFDEBFEA
S11303A08D830E94A50181E090E5A9E3B0E08983F3
S11303B09A83AB83BC8389819A81AB81BC812D8173
S11303C00BB6ABBFFC0120830BBE000000000E94F3
S11303D0A5012596CDBFDEBFDF91CF910895CF93C0
S11303E0DF931F921F92CDB7DEB789839A830BC028
S11303F089819A81FC0180810E94C90189819A8145
S1130400019689839A8389819A81FC01808188235A
S113041079F70F900F90DF91CF910895CF93DF93E9
S1130420CDB7DEB72597CDBFDEBF8D830E94A50172
S113043080E090E5A9E3B0E089839A83AB83BC8331
S113044089819A81AB81BC812D810BB6ABBFFC0144
S113045020830BBE000000000E94A5012596CDBF9D
S1130460DEBFDF91CF910895CF93DF9300D01F9229
S1130470CDB7DEB70E94A50180E090E5A9E3B0E026
S113048089839A83AB83BC8389819A81AB81BC8144
S113049021E00BB6ABBFFC0120830BBE00000000C3
S11304A00E94A5012496CDBFDEBFDF91CF910895B0
S11304B0CF93DF93CDB7DEB780EA96E028E1FC0165
S11304C0278B80EA96E028E1FC01268B80EA96E0FF
S11304D028E1FC01258B80EA96E028E1FC01248BCD
S11304E080EA96E028E1FC01238B80EA96E028E18B
S11304F0FC01228B80EA96E028E1FC01218B80EA52
S113050096E028E1FC01208B80EA96E02FE0FC01D4
S11305102183DF91CF910895CF93DF93CDB7DEB7D9
S11305202597CDBFDEBF8FEF8B831A821A8250C00E
S11305308A81282F30E081E090E002C0880F991F63
S11305402A95E2F780958F708C8380EA96E02C815F
S1130550FC012483000080EA96E0FC018085807F12
S11305608D838D81803F88F58D81882F90E0803B3D
S1130570910591F0813B910524F48037910579F040
S113058011C0803D910529F0803E910559F41982EE
S113059009C081E0898306C082E0898303C083E0C7
S11305A0898300008981282F30E08A81882F90E098
S11305B0880F991F880F991F820F931F8050904EA8
S11305C0FC0180818B838B8108C08A818F5F8A8341
S11305D08A81843008F4ACCF8B812596CDBFDEBFF1
S11305E0DF91CF910895CF93DF93CDB7DEB70000AD
S11305F080EA96E0FC018085882F90E0807F99272F
S1130600803F9105ACF3DF91CF910895CF93DF93B1
S1130610CDB7DEB72797CDBFDEBF0E941E010E9473
S113062054010E9458020E9444040E948C0289834F
S113063089818F3FD1F30E94F30280E49AE028E09D
S1130640FC01218789818E3008F587E392E00E94BE
S11306509E048981282F30E0C901880F991F820FD9
S1130660931F880F991F805F9F4D26E0FC01DE01D8
S1130670129601900D922A95E1F74A815B816C8173
S11306807D818E819F810E945B0314C089818E309D
S113069049F442ED50E262E173E282E293E20E94A5
S11306A0D50308C04AE650E268E273E286E393E2C7
S11306B00E94D503BACF0F931F93CF93DF9300D03B
S11306C000D0CDB7DEB749835A836B837C838D8397
S11306D09E830E94340289819A810E94EF0180ECFA
S11306E00E940E028B819C810E94EF0100E01AE0BF
S11306F08D819E810E947E04F80180A791A780E0ED
S11307009AE020E03AE0F90121812062FC01218392
S113071080E49AE020E43AE0F90121812061FC01BF
S113072021832696CDBFDEBFDF91CF911F910F911C
S113073008950F931F93CF93DF93CDB7DEB7289718
S1130740CDBFDEBF49835A836B837C838D839E83B5
S11307502F8338878F8198850E949E048D819E8186
S1130760029790F000E01AE08D819E810E947E0441
S1130770F80180A791A780E09AE020E03AE0F9012F
S113078021812062FC01218380E49AE020E43AE0A4
S1130790F90121812061FC0121832896CDBFDEBFB0
S11307A0DF91CF911F910F910895CF93DF93CDB730
S11307B0DEB72897CDBFDEBF8B839C836D837E839A
S11307C04F8358870E9434028B819C810E94EF01E1
S11307D080EC0E940E028D819E810E94EF0119829D
S11307E01A823AC080E49AE028E0FC0121878981DA
S11307F09A81880F991F880F991F880F991F2F813D
S11308003885820F931FFC014681578189819A8123
S1130810880F991F880F991F880F991F2F8138857A
S1130820F901E80FF91F9A014081518162817381B6
S1130830848195810E949903000080E49AE0FC0180
S11308408181882F90E080719927892BB1F7898164
S11308509A81019689839A8389819A81880F991F45
S1130860880F991F880F991F2F813885820F931F36
S1130870FC0184819581892B09F0B4CF2896CDBFE2
S1130880DEBFDF91CF910895CF93DF93CDB7DEB76D
S113089080E896E022E1FC01218380E09AE021E0F7
S11308A0FC01208380E09AE021E0FC01218380E0C8
S11308B09AE0FC01148280E49AE025E0FC012083A4
S11308C080E49AE0FC01118280E49AE0FC01148245
S11308D080E49AE021E0FC01268387E392E00E9411
S11308E09E0480EA90E020EA30E0F9012281216050
S11308F0FC0122837894DF91CF910895CF93DF9305
S113090000D000D0CDB7DEB789839A8389819A81DC
S1130910880F991F9C0140E050E080E894E8AEE124
S1130920B0E0BC01CD010E942105DA01C9010197A3
S11309302696CDBFDEBFDF91CF9108950F931F930D
S1130940CF93DF9300D000D0CDB7DEB789839A83ED
S113095000E41AE089819A81CC01A0E0B0E09C0116
S1130960AD0160E874E88EE190E00E941105DC01BD
S1130970CB0120E034EF41E050E0BC01CD010E9406
S11309802105DA01C9010197F80186A397A32696E8
S1130990CDBFDEBFDF91CF911F910F9108951F92BC
S11309A00F9200903F000F921124009038000F9294
S11309B01092380000903A000F9210923A00009082
S11309C03B000F9210923B002F938F939F93EF93D2
S11309D0FF93CF93DF93CDB7DEB780E49AE021E0B5
S11309E0FC01248780E49AE0FC01118280E09AE013
S11309F021E0FC012183DF91CF91FF91EF919F9141
S1130A008F912F910F9000923B000F9000923A002B
S1130A100F90009238000F9000923F000F901F90AB
S1130A201895DB018F939F930E944005BF91AF916E
S1130A30A29F800D911DA39F900DB29F900D112434
S1130A400895052E97FB1EF400940E94380557FD67
S1130A5007D00E944B0507FC03D04EF40C943805D4
S1130A6050954095309521953F4F4F4F5F4F0895D6
S1130A7090958095709561957F4F8F4F9F4F089506
S1130A800E946D05A59F900DB49F900DA49F800DAD
S1130A90911D11240895A1E21A2EAA1BBB1BFD016E
S1130AA00DC0AA1FBB1FEE1FFF1FA217B307E40749
S1130AB0F50720F0A21BB30BE40BF50B661F771FA1
S1130AC0881F991F1A9469F7609570958095909581
S1130AD09B01AC01BD01CF010895A29FB001B39F5A
S1130AE0C001A39F700D811D1124911DB29F700D33
S10F0AF0811D1124911D0895F894FFCF7E
S1130AFC0104070E020508000306090F0A0B0C0D6E
S1130B0C12221522E0062022232216042E2236223B
S1130B1C54044122442296044F225722DC046222BC
S1130B2C652226057022732274057E228622C7054F
S1130B3C912294221F069F22A7227D06B222BA225A
S1130B4C4807C522C822B707D322D6222D08E12292
S1130B5CE922A908F422F4220000202223221604FC
S1130B6CE803912294221F06E803C522C822B70782
S1130B7CE8037E228622C705E803202223221604DA
S1130B8CE803912294221F06E803C522C822B70762
S1130B9CE8037E228622C705E803202223221604BA
S1130BACE803912294221F06E803C522C822B70742
S1130BBCE8037E228622C705E803F422F42200000F
S1130BCCA00FD322D6222D08F40112221522E006FE
S1130BDCE803D322D6222D08F401C522C822B70774
S1130BECE803D322D6222D08F401C522C822B70764
S1130BFCF401C522C822B707F401912294221F06DE
S1130C0CE803912294221F06F40162226522260530
S1130C1CF401912294221F06F401F622F9224D0AC2
S1130C2CF401042307232D09E803D322D6222D082B
S1130C3CF401C522C822B707E803D322D6222D0813
S1130C4CF401C522C822B707F401C522C822B7078C
S1130C5CF401912294221F06E803912294221F0688
S1130C6CF401D322D6222D08F40112221522E00617
S1130C7CE803D322D6222D08F401C522C822B707D3
S1130C8CE803D322D6222D08F401C522C822B707C3
S1130C9CF401C522C822B707F401912294221F063D
S1130CACE803912294221F06F40112221522E00675
S1130CBCF40112221522E006F40170227322740549
S1130CCCE80312221522E006F401912294221F0655
S1130CDCE80312221522E006F401912294221F0645
S1130CECF401912294221F06F401202223221604DB
S1130CFCE803202223221604F401F422F422000037
S1130D0CA00F413600313736302E303020487A006F
S1130D1C433600313034362E353020487A004323A4
S1130D2C362F44623600313130382E373320487A2E
S1130D3C00443600313137342E363620487A00449C
S1130D4C23362F45623600313234342E3531204867
S1130D5C7A00453600313331382E353120487A004B
S1130D6C463600313339362E393120487A00462341
S1130D7C362F47623600313437392E393820487AC9
S1130D8C00473600313536372E393820487A00473B
S1130D9C23362F41623600313636312E323220481A
S1130DAC7A004123362F42623600313836342E36DF
S1130DBC3620487A00423600313937352E35332007
S1130DCC487A00433700323039332E303020487A99
S1130DDC004323372F44623700323231372E3436F6
S1130DEC20487A003000453700323633372E303203
S1130DFC20487A00443700323334392E33322048B9
S1130E0C7A00477265656E2048696C6C205A6F6E67
S1130E1C6500536F6E6963004C6176656E64657230
S1110E2C20546F776E00506F6B656D6F6E0013
S9030000FC
