S01500004C6162355F6C63645F6E616D652E7372656339
S11300000C94FE000C941C010C941C010C941C0117
S11300100C941C010C941C010C941C010C941C01E8
S11300200C941C010C941C010C941C010C941C01D8
S11300300C941C010C941C010C941C010C941C01C8
S11300400C941C010C941C010C941C010C941C01B8
S11300500C941C010C941C010C941C010C941C01A8
S11300600C941C010C941C010C941C010C941C0198
S11300700C941C010C941C010C941C010C941C0188
S11300800C941C010C941C010C941C010C941C0178
S11300900C941C010C941C010C941C010C941C0168
S11300A00C941C010C941C010C941C010C941C0158
S11300B00C941C010C941C010C941C010C941C0148
S11300C00C941C010C941C010C941C010C941C0138
S11300D00C941C010C941C010C941C010C941C0128
S11300E00C941C010C941C010C941C010C941C0118
S11300F00C941C010C941C010C941C010C941C0108
S11301000C941C010C941C010C941C010C941C01F7
S11301100C941C010C941C010C941C010C941C01E7
S11301200C941C010C941C010C941C010C941C01D7
S11301300C941C010C941C010C941C010C941C01C7
S11301400C941C010C941C010C941C010C941C01B7
S11301500C941C010C941C010C941C010C941C01A7
S11301600C941C010C941C010C941C010C941C0197
S11301700C941C010C941C010C941C010C941C0187
S11301800C941C010C941C010C941C010C941C0177
S11301900C941C010C941C010C941C010C941C0167
S11301A00C941C010C941C010C941C010C941C0157
S11301B00C941C010C941C010C941C010C941C0147
S11301C00C941C010C941C010C941C010C941C0137
S11301D00C941C010C941C010C941C010C941C0127
S11301E00C941C010C941C010C941C010C941C0117
S11301F00C941C010C941C010C941C0111241FBEB2
S1130200CFEFCDBFDFE3DEBF00E00CBF18BE19BEE9
S11302101ABE1BBE10E2A0E0B0E2E2E6F4E000E0A9
S11302200BBF02C007900D92AE30B107D9F71BBEC9
S11302300E941E010C942F020C940000CF93DF93B4
S1130240CDB7DEB70E942F010E94650180E090E2E5
S11302500E94100280E090E0DF91CF910895CF9347
S1130260DF93CDB7DEB780EE96E027E3FC01208371
S113027080EE96E023E3FC01248380E297E02FEFF5
S1130280FC01208380E494E021E0FC01208380E4ED
S113029094E028E2FC01238B80E494E020E8FC0154
S11302A0228B80E494E025E1FC01208B80E494E03F
S11302B020E439E3FC01268B378B80E494E029E1C8
S11302C0FC01248BDF91CF910895CF93DF93CDB7B9
S11302D0DEB76097CDBFDEBF80E090E8A8E2B0E073
S11302E089839A83AB83BC8389819A81AB81BC81E6
S11302F020E00BB6ABBFFC0120830BBE0E94C801FB
S113030080E090E5A9E3B0E08D839E83AF83B88756
S11303108D819E81AF81B88528E30BB6ABBFFC010C
S113032020830BBE000000000E94C80180E090E51D
S1130330A9E3B0E089879A87AB87BC8789859A85CA
S1130340AB85BC852FE00BB6ABBFFC0120830BBE95
S1130350000000000E94C80180E090E5A9E3B0E03D
S11303608D879E87AF87B88B8D859E85AF85B8892D
S113037021E00BB6ABBFFC0120830BBE00000000E4
S11303800E94C8016096CDBFDEBFDF91CF91089572
S1130390CF93DF9300D000D0CDB7DEB7198280E0D1
S11303A090E5A9E3B0E08A839B83AC83BD838A8113
S11303B09B81AC81BD810BB6ABBFFC0180810BBEC0
S11303C08E838E818983898188234CF32696CDBFC1
S11303D0DEBFDF91CF910895CF93DF93CDB7DEB722
S11303E02597CDBFDEBF8D8381E090E5A9E3B0E022
S11303F089839A83AB83BC8389819A81AB81BC81D5
S11304002D810BB6ABBFFC0120830BBE00000000A6
S11304100E94C8012596CDBFDEBFDF91CF9108951C
S1130420CF93DF931F921F92CDB7DEB789839A8350
S11304300BC089819A81FC0180810E94EC01898131
S11304409A81019689839A8389819A81FC018081AA
S1130450882379F70F900F90DF91CF910895F89446
S1050460FFCFC8
S11104624E69636B20496D616D7368616800BB
S9030000FC
