:020000020000FC
:02000000FFC13E
:0400AC000C94190295
:1004000030D0000003D0000020E0FFCF01E00093D7
:1004100084060093820601E00093890601E00093C0
:100420008A0602E00093900601E00093A20078940F
:1004300008950FEF0CD0000000918806000000FD29
:10044000189523952C9311E010938C06189512E3C0
:1004500004D00A950000D9F708951A950000E9F72D
:10046000089507E10093E10603E10093E5060FEF2D
:10047000009321070FEF0093010701E00093400470
:10048000F4E0E2E500E8019308E2008305E100936F
:0E049000500408E200933900B0E8A0E008959F
:00000001FF
