:100000000C94FE000C9416010C9416010C9416012D
:100010000C9416010C9416010C9416010C94160104
:100020000C9416010C9416010C9416010C941601F4
:100030000C9416010C9416010C9416010C941601E4
:100040000C9416010C9416010C9416010C941601D4
:100050000C9416010C9416010C9416010C941601C4
:100060000C9416010C9416010C9416010C941601B4
:100070000C9416010C9416010C9416010C941601A4
:100080000C9416010C9416010C9416010C94160194
:100090000C9416010C9416010C9416010C94160184
:1000A0000C9416010C9416010C9416010C94160174
:1000B0000C9416010C9416010C9416010C94160164
:1000C0000C9416010C9416010C9416010C94160154
:1000D0000C9416010C9416010C9416010C94160144
:1000E0000C9416010C9416010C9416010C94160134
:1000F0000C9416010C9416010C9416010C94160124
:100100000C9416010C9416010C9416010C94160113
:100110000C9416010C9416010C9416010C94160103
:100120000C9416010C9416010C9416010C941601F3
:100130000C9416010C9416010C9416010C941601E3
:100140000C9416010C9416010C9416010C941601D3
:100150000C9416010C9416010C9416010C941601C3
:100160000C9416010C9416010C9416010C941601B3
:100170000C9416010C9416010C9416010C941601A3
:100180000C9416010C9416010C9416010C94160193
:100190000C9416010C9416010C9416010C94160183
:1001A0000C9416010C9416010C9416010C94160173
:1001B0000C9416010C9416010C9416010C94160163
:1001C0000C9416010C9416010C9416010C94160153
:1001D0000C9416010C9416010C9416010C94160143
:1001E0000C9416010C9416010C9416010C94160133
:1001F0000C9416010C9416010C94160111241FBEC8
:10020000CFEFCDBFDFE3DEBF00E00CBF18BE19BEED
:100210001ABE1BBE20E2A0E0B0E201C01D92A230D7
:10022000B207E1F70E9450010C94F2010C94000017
:10023000CF93DF93CDB7DEB780E293E0FC0111826C
:1002400080E293E028E1FC01228380E293E025E054
:10025000FC012083DF91CF910895CF93DF931F920C
:100260001F92CDB7DEB789839A8380E293E029811C
:100270003A81FC01208F318F0F900F90DF91CF9149
:100280000895CF93DF93CDB7DEB780E293E0FC0112
:100290008581882F90E081709927DF91CF91089513
:1002A000CF93DF931F92CDB7DEB70E94B5010E94B6
:1002B000180100000E944101892BE1F380E090E0E9
:1002C0000E942D010E94DF01898389810E946901BA
:1002D000F9CFCF93DF931F92CDB7DEB789830000AC
:1002E00000000E944101892BE1F38981883619F0D1
:1002F00089818834C9F4809100209091012086364C
:100300009E4088F4809100209091012087569E4F56
:1003100080930020909301208091002090910120F3
:100320000E942D011EC01DC089818C3619F0898163
:100330008C34B9F48091002090910120893991404A
:1003400080F0809100209091012089599140809304
:1003500000209093012080910020909101200E9424
:100360002D010F90DF91CF910895CF93DF93CDB7FB
:10037000DEB782E696E024E0FC01208381EC97E082
:100380002AE0FC01208386EC97E02AE0FC01208330
:1003900080EA99E020E1FC01248380EA99E023E3EC
:1003A000FC01258380EA99E02CE0FC01268380EAA9
:1003B00099E020E3FC012783DF91CF910895CF934B
:1003C000DF93CDB7DEB7000081EA99E0FC018081C0
:1003D0008823D4F7000080EA99E0FC018081DF9156
:0803E000CF910895F894FFCFBE
:00000001FF
