:100000000C94FE000C940E010C940E010C940E0145
:100010000C940E010C940E010C940E010C940E0124
:100020000C940E010C940E010C940E010C940E0114
:100030000C940E010C940E010C940E010C940E0104
:100040000C940E010C940E010C940E010C940E01F4
:100050000C940E010C940E010C940E010C940E01E4
:100060000C940E010C940E010C940E010C940E01D4
:100070000C940E010C940E010C940E010C940E01C4
:100080000C940E010C940E010C940E010C940E01B4
:100090000C940E010C940E010C940E010C940E01A4
:1000A0000C940E010C940E010C940E010C940E0194
:1000B0000C940E010C940E010C940E010C940E0184
:1000C0000C940E010C940E010C940E010C940E0174
:1000D0000C940E010C940E010C940E010C940E0164
:1000E0000C940E010C940E010C940E010C940E0154
:1000F0000C940E010C940E010C940E010C940E0144
:100100000C940E010C940E010C940E010C940E0133
:100110000C940E010C940E010C940E010C940E0123
:100120000C940E010C940E010C940E010C940E0113
:100130000C940E010C940E010C940E010C940E0103
:100140000C940E010C940E010C940E010C940E01F3
:100150000C940E010C940E010C940E010C940E01E3
:100160000C940E010C940E010C940E010C940E01D3
:100170000C940E010C940E010C940E010C940E01C3
:100180000C940E010C940E010C940E010C940E01B3
:100190000C940E010C940E010C940E010C940E01A3
:1001A0000C940E010C940E010C940E010C940E0193
:1001B0000C940E010C940E010C940E010C940E0183
:1001C0000C940E010C940E010C940E010C940E0173
:1001D0000C940E010C940E010C940E010C940E0163
:1001E0000C940E010C940E010C940E010C940E0153
:1001F0000C940E010C940E010C940E0111241FBEE0
:10020000CFEFCDBFDFE3DEBF00E00CBF18BE19BEED
:100210001ABE1BBE0E9410010C94A9010C94000090
:10022000CF93DF93CDB7DEB70E94710100000E942B
:100230009A01892BE1F38FEF9FE00E948601000075
:100240000E949A01892BE1F380E098E00E948601E8
:1002500000000E949A01892BE1F380E098E00E945F
:10026000860100000E949A01892BE1F380E098E06A
:100270000E94860100000E949A01892BE1F380E030
:1002800098E00E94860100000E949A01892BE1F308
:1002900080E098E00E94860100000E949A01892B6C
:1002A000E1F380E098E00E94860100000E949A013C
:1002B000892BE1F380E098E00E94860100000E9413
:1002C0009A01892BE1F380E098E00E94860100000A
:1002D0000E949A01892BE1F380E090E00E94860160
:1002E000A5CFCF93DF93CDB7DEB780E293E0FC01DB
:1002F000118280E293E028E1FC01228380E293E016
:1003000025E0FC012083DF91CF910895CF93DF9307
:100310001F921F92CDB7DEB789839A8380E293E064
:1003200029813A81FC01208F318F0F900F90DF914E
:10033000CF910895CF93DF93CDB7DEB780E293E0FE
:10034000FC018581882F90E081709927DF91CF9102
:060350000895F894FFCFB0
:00000001FF
