:020000020000FC
:02000000FFC13E
:1004000012D004D005E51DD032D0FDCF08E1009315
:10041000A40A03E00093A50A01E20093A60A01E9F9
:100420000093A70A089508E00093810600938506CB
:1004300004E0009382060AE00093C1070093C60718
:1004400008951F931091A10A15FFFCCF0093A00AF5
:100450001F9108950191003011F0F3DFFBCF089553
:100460000091A10A07FFFCCF0091A00A08954A95C8
:1004700003D04030E1F708954F9342E04A9504D00D
:100480004030E1F74F9108954F9346EF4A950000B1
:06049000E9F74F91089509
:00000001FF
