:100000000C94FE000C940E010C940E010C940E0145
:100010000C940E010C940E010C940E010C940E0124
:100020000C940E010C940E010C940E010C940E0114
:100030000C940E010C940E010C940E010C940E0104
:100040000C940E010C940E010C940E010C940E01F4
:100050000C940E010C940E010C940E010C940E01E4
:100060000C940E010C940E010C940E010C940E01D4
:100070000C940E010C940E010C940E010C940E01C4
:100080000C940E010C940E010C940E010C940E01B4
:100090000C940E010C940E010C940E010C940E01A4
:1000A0000C940E010C940E010C940E010C940E0194
:1000B0000C940E010C940E010C940E010C940E0184
:1000C0000C940E010C940E010C940E010C940E0174
:1000D0000C940E010C940E010C940E010C940E0164
:1000E0000C940E010C940E010C940E010C940E0154
:1000F0000C940E010C940E010C940E010C940E0144
:100100000C940E010C940E010C940E010C940E0133
:100110000C940E010C940E010C940E010C940E0123
:100120000C940E010C940E010C940E010C940E0113
:100130000C940E010C940E010C940E010C940E0103
:100140000C940E010C940E010C940E010C940E01F3
:100150000C940E010C940E010C940E010C940E01E3
:100160000C940E010C940E010C940E010C940E01D3
:100170000C940E010C940E010C940E010C940E01C3
:100180000C940E010C940E010C940E010C940E01B3
:100190000C940E010C940E010C940E010C940E01A3
:1001A0000C940E010C940E010C940E010C940E0193
:1001B0000C940E010C940E010C940E010C940E0183
:1001C0000C940E010C940E010C940E010C940E0173
:1001D0000C940E010C940E010C940E010C940E0163
:1001E0000C940E010C940E010C940E010C940E0153
:1001F0000C940E010C940E010C940E0111241FBEE0
:10020000CFEFCDBFDFE3DEBF00E00CBF18BE19BEED
:100210001ABE1BBE0E9420020C94FD040C94000028
:10022000CF93DF93CDB7DEB780EE96E027E3FC01F6
:10023000208380EE96E023E3FC01248380E297E0B4
:100240002FEFFC01208380E494E021E0FC01208377
:1002500080E494E028E2FC01238B80E494E020E831
:10026000FC01228B80E494E025E1FC01208B80E4FA
:1002700094E020E439E3FC01268B378B80E494E0A2
:1002800029E1FC01248BDF91CF910895CF93DF9377
:10029000CDB7DEB72C97CDBFDEBF0E94970180E0BF
:1002A00090E5A9E3B0E089839A83AB83BC8389811D
:1002B0009A81AB81BC8128E30BB6ABBFFC012083E4
:1002C0000BBE000000000E94970180E090E5A9E3CA
:1002D000B0E08D839E83AF83B8878D819E81AF818F
:1002E000B8852FE00BB6ABBFFC0120830BBE00002E
:1002F00000000E94970180E090E5A9E3B0E08987C3
:100300009A87AB87BC8789859A85AB85BC8521E0B8
:100310000BB6ABBFFC0120830BBE000000000E94A7
:1003200097012C96CDBFDEBFDF91CF910895CF937B
:10033000DF9300D000D0CDB7DEB7198280E090E522
:10034000A9E3B0E08A839B83AC83BD838A819B81D0
:10035000AC81BD810BB6ABBFFC0180810BBE8E832F
:100360008E818983898188234CF32696CDBFDEBF99
:10037000DF91CF910895CF93DF93CDB7DEB7259767
:10038000CDBFDEBF8D8381E090E5A9E3B0E0898336
:100390009A83AB83BC8389819A81AB81BC812D8197
:1003A0000BB6ABBFFC0120830BBE000000000E9417
:1003B00097012596CDBFDEBFDF91CF910895CF93F2
:1003C000DF931F921F92CDB7DEB789839A830BC04C
:1003D00089819A81FC0180810E94BB0189819A8177
:1003E000019689839A8389819A81FC01808188237F
:1003F00079F70F900F90DF91CF910895CF93DF930E
:1004000000D01F92CDB7DEB780E090E5A9E3B0E061
:1004100089839A83AB83BC8389819A81AB81BC81B8
:1004200021E00BB6ABBFFC0120830BBE0000000037
:100430000E9497012496CDBFDEBFDF91CF91089532
:10044000CF93DF93CDB7DEB70E9410010E94460123
:100450000E942F020E945D020E947502FBCFCF9383
:10046000DF93CDB7DEB780E492E028E1FC01218381
:1004700080E492E020E3FC01228380E492E0FC012E
:10048000148280E492E020E2FC0121A380E492E067
:1004900021E0FC0122A380E492E021E0FC0120A302
:1004A00080E492E025E0FC01208380E296E023E1F5
:1004B000FC012283DF91CF910895CF93DF93CDB7D5
:1004C000DEB7000080E492E0FC0183A18823D1F331
:1004D00080E492E021E0FC0123A380E492E0FC01AF
:1004E00084A195A1DF91CF910895CF93DF93CDB7EC
:1004F000DEB7A697CDBFDEBF8DA39EA30E94FE01EF
:100500008DA19EA197708DA39EA38DA19EA1880F02
:10051000991F8DA39EA38DA19EA1CC01A0E0B0E068
:10052000BC01CD010E940204DC01CB0126EF39E0C1
:1005300040EA5AE3BC01CD010E949004DC01CB01EA
:1005400089839A83AB83BC8369817A818B819C8107
:100550000E94D303DC01CB018D838D81805D8E836E
:100560008D81882F90E0092E000CAA0BBB0BBC01DB
:10057000CD010E940404DC01CB019C01AD01698125
:100580007A818B819C810E946603DC01CB0120E093
:1005900030E040E251E4BC01CD010E949004DC0156
:1005A000CB018F839887A987BA876F8178858985E2
:1005B0009A850E94D303DC01CB018B878B85805DFC
:1005C0008C878B85882F90E0092E000CAA0BBB0B23
:1005D000BC01CD010E940404DC01CB019C01AD01F2
:1005E0006F81788589859A850E946603DC01CB013D
:1005F00020E030E040E251E4BC01CD010E949004D3
:10060000DC01CB018D879E87AF87B88B6D857E859A
:100610008F8598890E94D303DC01CB01898B89895E
:10062000805D8A8B8DA19EA1892F99270E945103FD
:100630008B8B8DA19EA1929582958F7089279F703B
:1006400089278F700E9451038C8B8DA18F700E941F
:1006500051038D8B8E818E8B8EE28F8B8C85888F54
:100660008A89898F80E28A8F86E58B8F80E28C8FE2
:1006700088E28D8F80E38E8F88E78F8F8B8988A3A8
:100680008C8989A38D898AA389E28BA31CA2CE01C0
:1006900046960E94DF01A696CDBFDEBFDF91CF91C7
:1006A0000895CF93DF931F92CDB7DEB789838981F9
:1006B0008A3020F48981805D898303C08981895CC7
:1006C000898389810F90DF91CF9108955058BB277E
:1006D000AA270E947E030C9456040E94480438F016
:1006E0000E944F0420F039F49F3F19F426F40C9433
:1006F00045040EF4E095E7FB0C943F04E92F0E94BB
:10070000670458F3BA17620773078407950720F048
:1007100079F4A6F50C9489040EF4E0950B2EBA2F0B
:10072000A02D0B01B90190010C01CA01A0011124F7
:10073000FF27591B99F0593F50F4503E68F11A16A3
:10074000F040A22F232F342F4427585FF3CF469534
:1007500037952795A795F0405395C9F77EF41F1656
:10076000BA0B620B730B840BBAF09150A1F0FF0F20
:10077000BB1F661F771F881FC2F70EC0BA0F621F0C
:10078000731F841F48F4879577956795B795F795FC
:100790009E3F08F0B0CF9395880F08F09927EE0F91
:1007A0009795879508950E946F0488F09F5798F059
:1007B000B92F9927B751B0F0E1F0660F771F881F66
:1007C000991F1AF0BA95C9F714C0B13091F00E9480
:1007D0008904B1E008950C948904672F782F882745
:1007E000B85F39F0B93FCCF3869577956795B395A7
:1007F000D9F73EF490958095709561957F4F8F4F16
:100800009F4F0895E89409C097FB3EF4909580951A
:10081000709561957F4F8F4F9F4F9923A9F0F92FC6
:1008200096E9BB279395F695879577956795B79544
:10083000F111F8CFFAF4BB0F11F460FF1BC06F5F2A
:100840007F4F8F4F9F4F16C0882311F096E911C03C
:10085000772321F09EE8872F762F05C0662371F05D
:1008600096E8862F70E060E02AF09A95660F771F71
:10087000881FDAF7880F9695879597F9089597F965
:100880009F6780E870E060E008959FEF80EC089536
:1008900000240A941616170618060906089500245F
:1008A0000A9412161306140605060895092E0394D9
:1008B000000C11F4882352F0BB0F40F4BF2B11F44D
:1008C00060FF04C06F5F7F4F8F4F9F4F089557FDAC
:1008D0009058440F551F59F05F3F71F04795880FAE
:1008E00097FB991F61F09F3F79F087950895121645
:1008F00013061406551FF2CF4695F1DF08C01616F1
:1009000017061806991FF1CF8695710561050894A1
:100910000895E894BB2766277727CB0197F90895B8
:100920000E94A3040C9456040E94480438F00E94CC
:100930004F0420F0952311F00C943F040C944504CF
:1009400011240C948A040E94670470F3959FC1F3EC
:10095000950F50E0551F629FF001729FBB27F00D6D
:10096000B11D639FAA27F00DB11DAA1F649F6627C2
:10097000B00DA11D661F829F2227B00DA11D621F11
:10098000739FB00DA11D621F839FA00D611D221FCB
:10099000749F3327A00D611D231F849F600D211DAF
:1009A000822F762F6A2F11249F5750409AF0F1F032
:1009B00088234AF0EE0FFF1FBB1F661F771F881F9B
:1009C00091505040A9F79E3F510580F00C943F0490
:1009D0000C948A045F3FE4F3983ED4F386957795B0
:1009E0006795B795F795E7959F5FC1F7FE2B880F41
:0E09F000911D9695879597F90895F894FFCF7D
:00000001FF
