:020000020000FC
:0200000075C1C8
:100200000FEF0093840609D00093840601C0F8CF55
:100210000091A806003FE0F3F3CF38E13093B70632
:100220003093B6063093B5063093B4063093B306D8
:100230003093B2063093B1063093B0060FE00093CE
:10024000A10608D008950093A40600001091A80606
:100250001F6008950EE0F7DF1F3E39F01F3D39F0B3
:100260001F3B39F01F3739F008C001E0089504E062
:10027000089507E008950EE008950DE0E4DF1F3EC5
:1002800039F01F3D39F01F3B39F01F3739F008C0F6
:1002900002E0089505E0089508E0089500E008955B
:1002A0000BE0D1DF1F3E39F01F3D39F01F3B39F025
:1002B0001F3739F008C003E0089506E0089509E00B
:1002C00008950FE0089507E0BEDF1F3E39F01F3D9F
:1002D00039F01F3B39F01F3739F0BCCF0AE00895E1
:1002E0000BE008950CE008950DE008951FEF1093C2
:0402F000810686DF1E
:00000001FF
