:100000000C94FE000C9424010C9424010C94240103
:100010000C9424010C9424010C9424010C942401CC
:100020000C9424010C9424010C9424010C942401BC
:100030000C9424010C9424010C9424010C942401AC
:100040000C9424010C9424010C9424010C9424019C
:100050000C9424010C9424010C9424010C9424018C
:100060000C9424010C9424010C9424010C9424017C
:100070000C9424010C9424010C9424010C9424016C
:100080000C9424010C9424010C9424010C9424015C
:100090000C9424010C9424010C9424010C9424014C
:1000A0000C9424010C9424010C9424010C9424013C
:1000B0000C9424010C9424010C9424010C9424012C
:1000C0000C9424010C9424010C9424010C9424011C
:1000D0000C9424010C9424010C9424010C9424010C
:1000E0000C9424010C9424010C9424010C942401FC
:1000F0000C9424010C9424010C9424010C942401EC
:100100000C9424010C9424010C9424010C942401DB
:100110000C9424010C9424010C9424010C942401CB
:100120000C9424010C9424010C9424010C942401BB
:100130000C9424010C9424010C9424010C942401AB
:100140000C9424010C9424010C9424010C9424019B
:100150000C9424010C9424010C9424010C9424018B
:100160000C9424010C9424010C9424010C9424017B
:100170000C9424010C9424010C9424010C9424016B
:100180000C9424010C9424010C9424010C9424015B
:100190000C9424010C9424010C9424010C9424014B
:1001A0000C9424010C9424010C9424010C9424013B
:1001B0000C9424010C9424010C9424010C9424012B
:1001C0000C9424010C9424010C9424010C9424011B
:1001D0000C9424010C9424010C9424010C9424010B
:1001E0000C9424010C9424010C9424010C942401FB
:1001F0000C9424010C9424010C94240111241FBE9E
:10020000CFEFCDBFDFE3DEBF00E00CBF18BE19BEED
:100210001ABE1BBE10E2A0E0B0E2ECE2F0E100E0AA
:100220000BBF02C007900D92A43DB107D9F71BBECA
:1002300020E2A4EDB0E201C01D92A83DB207E1F7B3
:100240000E941D050C9414080C940000FC010FB6CC
:10025000F8946091D4207091D5208091D62090910F
:10026000D7200FBE309721F0608371838283938300
:100270000895E0EEF6E087E3808383E384838FEFE5
:1002800080932007E0E4F4E081E0808388E2838BC0
:1002900080E8828B85E1808B80E499E3868B978B65
:1002A00089E1848B089540E050E569E370E00BB686
:1002B0006BBFFA0180810BBE8823CCF308950E94A6
:1002C000530128E380E090E5A9E3B0E00BB6ABBFB3
:1002D000FC0120830BBE000000000E9453012FE0B0
:1002E00080E090E5A9E3B0E00BB6ABBFFC01208352
:1002F0000BBE000000000E94530121E080E090E569
:10030000A9E3B0E00BB6ABBFFC0120830BBE00003D
:1003100000000E9453010895CF93C82F0E945301FB
:1003200041E050E569E370E00BB66BBFFA01C083B2
:100330000BBE000000000E945301CF910895CF939F
:10034000DF93EC018881882331F021960E948C0193
:1003500089918111FBCFDF91CF910895CF93C82F61
:100360000E94530140E050E569E370E00BB66BBFBB
:10037000FA01C0830BBE000000000E945301CF9120
:1003800008950E94530121E080E090E5A9E3B0E0E8
:100390000BB6ABBFFC0120830BBE000000000E9427
:1003A00053010895CF93C0911A2087E0C827C093C6
:1003B0001A200E9453018C2F88600E94AE01CF91B9
:1003C0000895E0E4F2E088E1818380E3828314828F
:1003D00082E4838380E281A381E082A380A398E208
:1003E00091A782A780A78DE0808383E38093220674
:1003F0000895E0E4F2E083A18823E9F3E0E4F2E089
:1004000081E083A384A195A108958A3010F4805DD2
:100410000895895C08958F929F92AF92BF92DF9268
:10042000EF92FF920F931F93CF93DF93CDB7DEB779
:100430002F97CDBFDEBF8C010E94C1011770000F46
:10044000111FB80180E090E00E94340626EF39E0E9
:1004500040EA5AE30E94C2064B015C010E94050675
:10046000E62E70E080E090E00E9436069B01AC0131
:10047000C501B4010E94980520E030E040E251E45B
:100480000E94C2064B015C010E940506F62E812FD8
:100490000E940502D82EC801929582958F708927F7
:1004A0009F7089278F700E940502182F802F8F70F0
:1004B0000E940502082F90E39E0D99838EE28A83A5
:1004C00080E38F0D8B836F2D70E080E090E00E94C1
:1004D00036069B01AC01C501B4010E94980520E0DD
:1004E00030E040E251E40E94C2060E940506605DD1
:1004F0006C8380E28D8396E59E838F8388E2888774
:1005000080E3898788E78A87DB861C870D8789E2F5
:100510008E871F86CE0101960E949F012F96CDBF28
:10052000DEBFDF91CF911F910F91FF90EF90DF9091
:10053000BF90AF909F908F900895E0E4F2E083A584
:100540008823E9F3E0E4F2E081E083A784A595A5A0
:100550000895E0EAF6E088E1878B868B858B848BB3
:10056000838B828B818B808B8FE081830895E0EA7F
:10057000F6E08EE0848300008085807F803FA8F0D5
:1005800021E030E061E070E0A901CB01022E02C061
:10059000880F991F0A94E2F780958F70848300007A
:1005A0008085807F803FF8F402C040E050E0803BCF
:1005B00061F018F4803759F00BC0803D21F0803E87
:1005C00039F4A0E005C0A1E003C0A2E001C0A3E0AF
:1005D000FA01EE0FFF1FEE0FFF1FEA0FF11DE65F9E
:1005E000FF4D808108952F5F3F4F2430310561F624
:1005F0008FEF0895E0EAF6E08085807F90E0803F0D
:100600009105D4F3089588E99AE300000197E9F78A
:10061000089524E130E058E94AE306C0000001975C
:10062000E9F72150310919F0852F942FF7CF08955C
:100630008F929F92BF92CF92DF92EF92FF920F9391
:100640001F93CF93DF938B01882E912C18141904DC
:100650009CF4EB016B01C80ED11C0E94A2078370B1
:100660009078992324F401978C6F9F6F01968F5B8C
:100670008993CC15DD0589F70E94A207B4010E9479
:100680002F077C0118161906ACF4C12CD12C0F2EA3
:10069000F0E3BF2EF02D0E94A207B4010E942F07A5
:1006A000F801E80FF91FB0828FEFC81AD80ACE14EC
:1006B000DF0489F70000DF91CF911F910F91FF9028
:1006C000EF90DF90CF90BF909F908F9008950E9401
:1006D000030380EC0E94AE018091062090910720D8
:1006E0000E949F010E94B7028F3FE1F30E94FA022D
:1006F00008954F925F926F927F928F929F92AF92E6
:10070000BF92CF92DF92EF92FF920F931F93CF93FE
:10071000DF93882309F4A1C05A01815090E001962B
:100720003A01680E791E812CCFEFC62ED12C0F2EE8
:10073000F8EE9F2EF02DD3E02501F5018081815444
:10074000843008F03FC08BE190E20E949F01F501E8
:1007500080810E948C010E94FA021C141D0484F006
:1007600014C00E94B702C82F8F3F19F4015011091D
:10077000C1F7FFEFEF1AFF0AEC14FD0419F405C0EE
:10078000E12CF12C092D1D2FECCF8C2F8F700E94A6
:100790000502F2019081891309C080EC0E94AE012C
:1007A00088E290E20E949F01839407C080EC0E943F
:1007B000AE0185E390E20E949F010E9409030E941E
:1007C000C10143C00E94A2078C0180E490E20E9414
:1007D0009F01C80183709078992324F401978C6F4E
:1007E0009F6F01968F5B0E948C010E94FA021C147D
:1007F0001D0484F014C00E94B702C82F8F3F19F463
:1008000001501109C1F7FFEFEF1AFF0AEC14FD04C4
:1008100019F405C0E12CF12C092D1D2FECCFCF3F91
:1008200049F480EC0E94AE018DE490E20E949F01A9
:10083000839407C080EC0E94AE0187E590E20E949D
:100840009F010E9409030E94C1018FEFA81AB80AF4
:10085000A614B70409F070CF01C0812C83E890E2A0
:100860000E949F0180E3880D0E948C0180EC0E9411
:10087000AE010E946703882DDF91CF911F910F91E8
:10088000FF90EF90DF90CF90BF90AF909F908F90B0
:100890007F906F905F904F900895FF920F931F93FA
:1008A000CF93DF930E94FA02809108209091092053
:1008B0000E949F010E9467030E94C1018091042051
:1008C000909105200E949F0180EC0E94AE0188E675
:1008D00090E20E949F010E94B7028F3FE1F36AC03D
:1008E0000F2EFDECFF2EF02D0E94C1010EE1D5E090
:1008F000C1E310E086E790E20E949F018C2F0E94E6
:100900008C0160E070E08D2F0E9418030E94670345
:100910000E94C10140E050E0602F8D2F0E947903BA
:10092000180F0E94FA020E94C101CF5FDE5F0350E0
:10093000C43301F78DE790E20E949F01143188F0E3
:100940001F9D812D11248695869586950E9405020E
:100950000E948C018CEE810F0E9405020E948C0186
:1009600018C0C6EFC10FCA3080F41F9D812D11241D
:100970008695869586950E9405020E948C018C2F93
:100980000E9405020E948C0104C080E3810F0E9436
:100990008C010E9409030E94C10180910420909162
:1009A00005200E949F010E9467030E94B7028F3FAB
:1009B000E1F304C08E3009F093CF03C08E3009F00C
:1009C00093CF0E94C101DF91CF911F910F91FF90B2
:1009D00008950F931F93CF93DF930E94C101C0E846
:1009E0008FEF0E948C010E940303CF5FC538C1F7CF
:1009F000D0E800E80E94B702182F8D2F0E94AE01A8
:100A000080E20E948C010E9403038C2F0E94AE01A1
:100A10008FEF0E948C010E940303CF5FDF5FC43918
:100A200008F0C02FD43908F0D02F1F3F19F3812FC1
:100A3000DF91CF911F910F9108950E9439010E947B
:100A40005F010E94E1010E94A90280E090E00E9403
:100A50002601CB010E94A607CFEFDFEF0F2EC12C9E
:100A6000F0E8DF2EF8E2EF2EF12CF02D00E011E09F
:100A7000CF3F29F40E94B702C82F8F3FD9F3C2306D
:100A800020F40E94D201CD2F50C0C43070F40E94D7
:100A9000C1010E94F9010E940B020E9403030E94FF
:100AA000B702C82F8F3FA9F340C0C63040F40E9460
:100AB000C1018BE890E20E949F01CD2F36C0C83063
:100AC00078F40E94C10189E990E20E949F0180ECC4
:100AD0000E94AE018AEA90E20E949F01CD2F25C0BC
:100AE00082EF8C0F813FB0F40E94C1010E949D02F1
:100AF0008F3F910509F038F40BB6EBBEF601108379
:100B00000BBECD2F12C00BB6EBBEF60100830BBEA1
:100B1000CD2F0BC0CC3021F40E94E904C82F05C0B2
:100B20000E94C1010E944D04CD2F0E94FA02A0CF65
:100B30005058BB27AA270E94B0050C9488060E9433
:100B40007A0638F00E94810620F039F49F3F19F4AC
:100B500026F40C9477060EF4E095E7FB0C947106EE
:100B6000E92F0E94990658F3BA17620773078407A2
:100B7000950720F079F4A6F50C94BB060EF4E095E9
:100B80000B2EBA2FA02D0B01B90190010C01CA0147
:100B9000A0011124FF27591B99F0593F50F4503EF2
:100BA00068F11A16F040A22F232F342F4427585FE4
:100BB000F3CF469537952795A795F0405395C9F7FC
:100BC0007EF41F16BA0B620B730B840BBAF09150B4
:100BD000A1F0FF0FBB1F661F771F881FC2F70EC053
:100BE000BA0F621F731F841F48F487957795679526
:100BF000B795F7959E3F08F0B0CF9395880F08F012
:100C00009927EE0F9795879508950E94A10688F081
:100C10009F5798F0B92F9927B751B0F0E1F0660FC0
:100C2000771F881F991F1AF0BA95C9F714C0B13001
:100C300091F00E94BB06B1E008950C94BB06672FAB
:100C4000782F8827B85F39F0B93FCCF38695779530
:100C50006795B395D9F73EF4909580957095619519
:100C60007F4F8F4F9F4F0895E89409C097FB3EF444
:100C700090958095709561957F4F8F4F9F4F9923E9
:100C8000A9F0F92F96E9BB279395F6958795779567
:100C90006795B795F111F8CFFAF4BB0F11F460FF27
:100CA0001BC06F5F7F4F8F4F9F4F16C0882311F07F
:100CB00096E911C0772321F09EE8872F762F05C093
:100CC000662371F096E8862F70E060E02AF09A952E
:100CD000660F771F881FDAF7880F9695879597F923
:100CE000089597F99F6780E870E060E008959FEFAE
:100CF00080EC089500240A941616170618060906B3
:100D0000089500240A941216130614060506089581
:100D1000092E0394000C11F4882352F0BB0F40F409
:100D2000BF2B11F460FF04C06F5F7F4F8F4F9F4F49
:100D3000089557FD9058440F551F59F05F3F71F0CB
:100D40004795880F97FB991F61F09F3F79F0879532
:100D50000895121613061406551FF2CF4695F1DFBB
:100D600008C0161617061806991FF1CF869571054B
:100D7000610508940895E894BB2766277727CB017F
:100D800097F908950E94D5060C9488060E947A0669
:100D900038F00E94810620F0952311F00C94710622
:100DA0000C94770611240C94BC060E94990670F3EB
:100DB000959FC1F3950F50E0551F629FF001729F00
:100DC000BB27F00DB11D639FAA27F00DB11DAA1F0F
:100DD000649F6627B00DA11D661F829F2227B00D5C
:100DE000A11D621F739FB00DA11D621F839FA00DE7
:100DF000611D221F749F3327A00D611D231F849F37
:100E0000600D211D822F762F6A2F11249F5750408D
:100E10009AF0F1F088234AF0EE0FFF1FBB1F661F08
:100E2000771F881F91505040A9F79E3F510580F0D1
:100E30000C9471060C94BC065F3FE4F3983ED4F327
:100E4000869577956795B795F795E7959F5FC1F775
:100E5000FE2B880F911D9695879597F9089597FB1E
:100E6000072E16F4009407D077FD09D00E9443079F
:100E700007FC05D03EF4909581959F4F089570959D
:100E800061957F4F0895AA1BBB1B51E107C0AA1FA4
:100E9000BB1FA617B70710F0A61BB70B881F991F1B
:100EA0005A95A9F780959095BC01CD0108958F9230
:100EB0009F92AF92BF92CF92DF92EF92FF92CF9329
:100EC000DF93EC01688179818A819B8161157105CD
:100ED0008105910521F464E279ED8BE597E02DE140
:100EE00033EF41E050E00E94B10749015A019B01F4
:100EF000AC01A7EAB1E40E94D0076B017C01ACEE23
:100F0000B4EFA50194010E94DE07DC01CB018C0D3A
:100F10009D1DAE1DBF1DB7FF03C00197A109B048BD
:100F200088839983AA83BB839F77DF91CF91FF90BA
:100F3000EF90DF90CF90BF90AF909F908F900895EB
:100F40000C94570780E090E20C945707A0E0B0E0C3
:100F50008093002090930120A0930220B09303205F
:100F60000895052E97FB1EF400940E94C80757FDB4
:100F700007D00E94E30707FC03D04EF40C94C80787
:100F800050954095309521953F4F4F4F5F4F0895B5
:100F900090958095709561957F4F8F4F9F4F0895E5
:100FA0000E940508A59F900DB49F900DA49F800DF1
:100FB000911D11240895B7FF0C94D0070E94D0070B
:100FC000821B930B0895A1E21A2EAA1BBB1BFD01E5
:100FD0000DC0AA1FBB1FEE1FFF1FA217B307E40718
:100FE000F50720F0A21BB30BE40BF50B661F771F70
:100FF000881F991F1A9469F7609570958095909550
:101000009B01AC01BD01CF010895A29FB001B39F28
:10101000C001A39F700D811D1124911DB29F700D01
:0C102000811D1124911D0895F894FFCF4C
:10102C0001000000B7206820C8200104070E02054B
:10103C0008000306090F0A0B0C0D0753696D6F6E40
:10104C0020736179733A2000434F52524543542127
:10105C00203A2D290057524F4E4721203A2D280077
:10106C00507265737320746869733A2000476F6F10
:10107C0064204A6F62210053696D6F6E206469644D
:10108C006E27742073617900507265737320616EE2
:10109C0079206B657900526F756E642000546F7403
:1010AC00616C2053636F72653A20004E69636B204C
:1010BC00496D616D73686168004D61792074686574
:1010CC0020536368776172747A0062652077697463
:1010DC006820796F7521005072657373202A207413
:1010EC006F20717569742E0053696D6F6E2053619A
:0410FC0079732100E3
:040000050080200651
:00000001FF
